                response_dict = json.loads(resp.text)
                for i in response_dict:
                    print("key: ", i, "val: ", response_dict[i])

                                    for dict in response_list:
                    print("key: ", dict['address_id'], "val: ", dict['action'])

python manage.py makemigrations snippets
python manage.py migrate

(env) Ashutoshs-MBP:altcoin ashu$ python manage.py makemigrations txn
Migrations for 'txn':
  altcoin/txn/migrations/0002_txn_username.py
    - Add field username to txn
(env) Ashutoshs-MBP:altcoin ashu$ python manage.py migrate
Operations to perform:
  Apply all migrations: address, admin, auth, authtoken, contenttypes, sessions, txn, user, wallet
Running migrations:
  Applying txn.0002_txn_username... OK


  python manage.py createsuperuser


  	"address": {
		"receiver" : [
		{
		"address_id" : "13MpzqNfAK5TiNZubHUJjYU4DCJufgKoEe",
		"amount" : "10000"
		}],
		"sender": [{
		"address_id" : "1CRkjhJgWC6tPNdfqnXRgYDPniSScHenuP",
		"amount" : "5000"
		}]},


		---------------------

		username: None action: None coin_type: None wallet_id 18
private_address_list  [{'address_id': '14qNYFCAqksB7JPwtad9KVdLrjWtMBR3Hs', 'private_key': 'b921caa4c619b65e45e7a7c189fb1e5e13d413bc33067c9a298e54a18f4c77bd', 'public_key': '022d71dd1c4b2c7ad5a0fd6d7ad6c71f7cfbcebace82ba4b83bf96ed007626541f'}, {'address_id': '1A5UsbU3otyD3wTim7TnimtjhyyuLLU3WL', 'private_key': '1a1e6cadccd5bf836fcbf3b6e63d23062f1ddbcdd499c131a5de871f12df5c80', 'public_key': '039e860df3160643484ccc55c9249b20e641f12f324da2c810dd94fc9a5be3b5f6'}, {'address_id': '19Xk9Ur99PZS97VoG3dZ9y3ddZu8DkbEo8', 'private_key': '2c906cf49c2c58570df5ac78df3436825788f6d5f1c244200b5443f048bdf0b4', 'public_key': '0215ef2164876b4bc3c6dcbb4af5f0418a285ca44a185f2fd05a3d874993eabc6e'}, {'address_id': '1FULUZAAdfJX8oRuVYYqZVRGdDzyfCUNRm', 'private_key': 'e39f7651405083a3d1879e841ee28569dcd18ec9f5e807fc39740c523c51651e', 'public_key': '036720eb8ffc62cf22b5a87c4dce2bb1bb3fcdac932c91c50ea377ad4d935c7963'}, {'address_id': '16J9eUiHtyhpkTyjAEiXy8NJehecRwGrTd', 'private_key': '0424ad447014ed83cba16a4c658dbf4363751766d8541344c964b9b60a2f08d5', 'public_key': '02f862711f15652805938e0ea339adeb9bbe0a3a1eb6ad55e47a7671c1a0598be6'}, {'address_id': '1CRkjhJgWC6tPNdfqnXRgYDPniSScHenuP', 'private_key': 'c796f66ea41dc4ad82b5ff8f3ff7aaaad616599ffc7ccc5fe0ab75ffae39ed29', 'public_key': '02e9acfec68c7721c30b90288c42c130af0f2a204b1226ee44f3384ef786f3a879'}, {'address_id': '1FRxV1q736t6rDBqbUqGD83S8rRUHQ2LXu', 'private_key': 'ca002a3b37a7b576ef02a091c41b25e736a96cfe41632e587f22f8049237e660', 'public_key': '0245a8eebf034154c41cba95a60a3ec943bb2d2c91236f3e9a695711e3d1a30e42'}, {'address_id': '1EDwNMtjqpPC9zvdXvtfyM8Sb4cSXgyESG', 'private_key': '017e582f97aff430c0e559533a696807fe8d9eb6a9a48a1e584a48b885dba932', 'public_key': '020cbfc75edd62b8c660115fbbf6acfc282cf0b32a86d13508e0b05c5b43ef1bce'}, {'address_id': '12VNFsoVg5gJj7dsEP2Uc5iH5fseP139Wt', 'private_key': '69d9588a34504fb9718623b0e58acf75bded72c53c1689ef71c2260d45863b3c', 'public_key': '02c8f3cf6e01a72aa0632c26112e05b5510b9a22af73a4db150a472fb1b01978f0'}, {'address_id': '1F6wFyHqQZjvGWAUartNS9PzyHUCRjxM9y', 'private_key': '6661fc1210dc25a3489b4bbf28b031ea6991f63845b15e044330b316072ff6bc', 'public_key': '02ee28c7200e3bad343f9958265760656bb9ab251638ca655b2b99f474e1adb43a'}, {'address_id': '1DjYnQfXLXvf9dujf5VuVyK7uj8Hfb2CVs', 'private_key': '76cc55e9249bee77e6f838411af71cbc785fcd9ab7b5fd09533f66fe1c8b01f9', 'public_key': '0324b50df09d2df97b147c7779cb8998aeed5b953864496db62813f1facfff174a'}, {'address_id': '1BrNHSyknKf1qtzvKugWC9d3hz2LaSBxWa', 'private_key': '1f429565c5c057392adf3fc6d49f62ebd29482cf946c5f9b00e8baf8ca17e99a', 'public_key': '02fc2eb44a675d274a1c2c8c54809d69188c380ae784b3e483da143ffd819cfe09'}, {'address_id': '1A3FiWoFodD4tQaHTm1oewMoxGRN9GZype', 'private_key': '796837719fcfbf9e1fe6768f1ae124181f25b0863c63f69ad4ae5033e08ff0a6', 'public_key': '022d8a7a2cc1bc5de14864b523fb5f7bef8ec8b1d5ae407db6ba4a3cbf1a34c7ef'}, {'address_id': '12UtpTgQ9zqL2XQSRkzxk9z1vJuC4G1cKR', 'private_key': 'f039e19c98c115891af9ba5489c0dcac84983745ef1266673e514cea13565b05', 'public_key': '025cb6c771131cebfaf9336d3ef3b2fabdcab603725c933ff92ce7ce688eed185b'}, {'address_id': '14EXDnDkGYc9MEsEH8ybwFe2D9Fz3FnCw1', 'private_key': '7d0f5be697787576c862c345528531e6c15cd7370121d9e72737e7966ab9e417', 'public_key': '03a292abc1cad5b7b0a9f0189aac0fa2ec6f731491993aa9082dab89691f9f2b9c'}, {'address_id': '14LJzER7MFS2bFcLyMC4AE7JDoxKRZjWAR', 'private_key': '89a11702d5be3f674c076b6169e583967ae46cca60f6a70f8f94ffb1b0bcab2b', 'public_key': '035e3fcb011cd1b316ec1e3602a33e92ba4ebdf984b8521692e59615aa907ae146'}, {'address_id': '1BowsTJhLX9NJyn5pKr5Ej73t2kFCxUt3L', 'private_key': '66435ab4772f908fe38290eb0de491657e6bea8d993485f27674361580f7c48e', 'public_key': '03a3933ec5cb75b146aeb88289b19035573c33190accf84499666590a52c768b59'}, {'address_id': '13MpzqNfAK5TiNZubHUJjYU4DCJufgKoEe', 'private_key': 'c01c4e2b8a3d9bbe2315a6e6bbd680e8a94075e6f1c2f77523576b96ece46d4f', 'public_key': '033469c111f912da360b6c939eda80be129f8fce4e92a89c1bfb367776a5ab93c6'}, {'address_id': '1A4avyicX9AHQ6ifWpVU8ChoQUep6AmEEZ', 'private_key': '87bff107892dbcdada31f3f3abd6b949879edc1d6f01ccafa50bd8629273f494', 'public_key': '03b9c068e944e87ae924859fc27f6c2281f129ebffd51d7457c26dd7a70a8d8c3d'}, {'address_id': '19uMFh7BjLmihPgBZNQRQzUn4sLqsPpC6e', 'private_key': '0481c180908e78eddac6356cd1a94234eabbdbb3ad9404a947d334237468cf7c', 'public_key': '03c008967969469b9998cb36ad7150eb00a119f686c3888f163e681c4dee4bea82'}, {'address_id': '16JJta5vgmJetv4jqFovSyc4rM7ior3skr', 'private_key': '4bda6b89654365e409f681c0eeab7354f57219d40aac9c5e06acd22971699094', 'public_key': '0364a9267133ac4962c06f1b5ef846c5e76febc2e916e16d5f8e9c39532aea1c9e'}, {'address_id': '1EssB4rz2SwjLrCsrZ5q7B5os95q7yVsJt', 'private_key': 'ff049c0059b3c8214c24b47e3d47f8eb248a903dd591e7e351e6e641f961cde0', 'public_key': '03f9eeadc485adfd47abedcd6b942a1a77311c23c332f6dcea76be8d8547156a2e'}, {'address_id': '17brLUdLEVaga7dF8tjoNVF8urMqZnY3uJ', 'private_key': 'bc1ca6efe16050bee203bd02bbe47fdc0649f747dec57bbd408f5a0f8bd0e26b', 'public_key': '0349a471ec20b9ed9e780f4a1df0c91f15d83ddb5402e4031c189107937fa5425b'}]
fee per kb -----------> 82984

=== Create and sign Testnet Transaction with Multiple INPUTS using keys from Wallet class 'TestNetWallet' example
See txid 82b48b128232256d1d5ce0c6ae7f7897f2b464d44456c25d7cf2be51626530d9 ===
transaction_outputs [<Output(value=5000, address=1CRkjhJgWC6tPNdfqnXRgYDPniSScHenuP, type=p2pkh)>, <Output(value=10000, address=13MpzqNfAK5TiNZubHUJjYU4DCJufgKoEe, type=p2pkh)>]
fee with o/p ------->  18233
response_list [{'txid': '3f7e4d297a03b99ccb29fa0fd7e58ffd0f8902e74a5c7333a6d55299ede87bcc', 'vout': 0, 'address': '1CRkjhJgWC6tPNdfqnXRgYDPniSScHenuP', 'label': '', 'account': '', 'scriptPubKey': '76a9147d57e032ffc74e35094d4b78f22c765c75bddeb688ac', 'amount': '0.00033783', 'confirmations': 251, 'spendable': False, 'solvable': False, 'safe': True}]
json_object  address ------------  1CRkjhJgWC6tPNdfqnXRgYDPniSScHenuP
json_object  dict address  1CRkjhJgWC6tPNdfqnXRgYDPniSScHenuP
transaction_inputs [('3f7e4d297a03b99ccb29fa0fd7e58ffd0f8902e74a5c7333a6d55299ede87bcc', 0, 'c796f66ea41dc4ad82b5ff8f3ff7aaaad616599ffc7ccc5fe0ab75ffae39ed29')]
fee with ip/ op  18233
transaction ------- {'hash': 'b85c27bdd685639431f45c196037af9f9f3f433ba1cad88f4ce24c18a77169b8', 'date': None, 'network': 'bitcoin', 'witness_type': 'legacy', 'coinbase': False, 'flag': None, 'confirmations': None, 'block_height': None, 'block_hash': None, 'fee': None, 'fee_per_kb': 82984, 'inputs': [{'index_n': 0, 'prev_hash': '3f7e4d297a03b99ccb29fa0fd7e58ffd0f8902e74a5c7333a6d55299ede87bcc', 'output_n': 0, 'script_type': 'sig_pubkey', 'address': '1CRkjhJgWC6tPNdfqnXRgYDPniSScHenuP', 'value': None, 'public_keys': '02e9acfec68c7721c30b90288c42c130af0f2a204b1226ee44f3384ef786f3a879', 'compressed': True, 'encoding': 'base58', 'double_spend': False, 'script': '473044022070d0f37de5ef9ef4c5be7dbd4f1b49d42a821304af7a2195d0fa5c7754fabb04022028e11ccea40d0ee16b7394376efa5128dd2d04d3e7ca01949e6e215c4671f627012102e9acfec68c7721c30b90288c42c130af0f2a204b1226ee44f3384ef786f3a879', 'redeemscript': '', 'sequence': 4294967295, 'signatures': ['70d0f37de5ef9ef4c5be7dbd4f1b49d42a821304af7a2195d0fa5c7754fabb0428e11ccea40d0ee16b7394376efa5128dd2d04d3e7ca01949e6e215c4671f627'], 'sigs_required': 1, 'locktime_cltv': None, 'locktime_csv': None, 'public_hash': '7d57e032ffc74e35094d4b78f22c765c75bddeb6', 'script_code': '76a9147d57e032ffc74e35094d4b78f22c765c75bddeb688ac', 'unlocking_script': '473044022070d0f37de5ef9ef4c5be7dbd4f1b49d42a821304af7a2195d0fa5c7754fabb04022028e11ccea40d0ee16b7394376efa5128dd2d04d3e7ca01949e6e215c4671f627012102e9acfec68c7721c30b90288c42c130af0f2a204b1226ee44f3384ef786f3a879', 'unlocking_script_unsigned': '76a9147d57e032ffc74e35094d4b78f22c765c75bddeb688ac', 'witness_type': 'legacy', 'witness': '3044022070d0f37de5ef9ef4c5be7dbd4f1b49d42a821304af7a2195d0fa5c7754fabb04022028e11ccea40d0ee16b7394376efa5128dd2d04d3e7ca01949e6e215c4671f6270102e9acfec68c7721c30b90288c42c130af0f2a204b1226ee44f3384ef786f3a879', 'sort': False, 'valid': None}], 'outputs': [{'value': 5000, 'script': '76a9147d57e032ffc74e35094d4b78f22c765c75bddeb688ac', 'script_type': 'p2pkh', 'public_key': '', 'public_hash': '7d57e032ffc74e35094d4b78f22c765c75bddeb6', 'address': '1CRkjhJgWC6tPNdfqnXRgYDPniSScHenuP', 'output_n': 0, 'spent': False}, {'value': 10000, 'script': '76a91419e0a3051c3baa3a4bf8f7faa10e2d4e3be21ab688ac', 'script_type': 'p2pkh', 'public_key': '', 'public_hash': '19e0a3051c3baa3a4bf8f7faa10e2d4e3be21ab6', 'address': '13MpzqNfAK5TiNZubHUJjYU4DCJufgKoEe', 'output_n': 0, 'spent': False}], 'input_total': 0, 'output_total': 15000, 'version': 1, 'locktime': 0, 'raw': '0100000001cc7be8ed9952d5a633735c4ae702890ffd8fe5d70ffa29cb9cb9037a294d7e3f000000006a473044022070d0f37de5ef9ef4c5be7dbd4f1b49d42a821304af7a2195d0fa5c7754fabb04022028e11ccea40d0ee16b7394376efa5128dd2d04d3e7ca01949e6e215c4671f627012102e9acfec68c7721c30b90288c42c130af0f2a204b1226ee44f3384ef786f3a879ffffffff0288130000000000001976a9147d57e032ffc74e35094d4b78f22c765c75bddeb688ac10270000000000001976a91419e0a3051c3baa3a4bf8f7faa10e2d4e3be21ab688ac00000000', 'size': 225, 'vsize': 225, 'verified': False, 'status': 'new'}
Raw Signed Transaction b'0100000001cc7be8ed9952d5a633735c4ae702890ffd8fe5d70ffa29cb9cb9037a294d7e3f000000006a473044022070d0f37de5ef9ef4c5be7dbd4f1b49d42a821304af7a2195d0fa5c7754fabb04022028e11ccea40d0ee16b7394376efa5128dd2d04d3e7ca01949e6e215c4671f627012102e9acfec68c7721c30b90288c42c130af0f2a204b1226ee44f3384ef786f3a879ffffffff0288130000000000001976a9147d57e032ffc74e35094d4b78f22c765c75bddeb688ac10270000000000001976a91419e0a3051c3baa3a4bf8f7faa10e2d4e3be21ab688ac00000000'
Verified True
------------info-----------
Transaction b85c27bdd685639431f45c196037af9f9f3f433ba1cad88f4ce24c18a77169b8
Date: None
Network: bitcoin
Version: 1
Witness type: legacy
Status: new
Verified: True
Inputs
- 1CRkjhJgWC6tPNdfqnXRgYDPniSScHenuP None 3f7e4d297a03b99ccb29fa0fd7e58ffd0f8902e74a5c7333a6d55299ede87bcc 0
  legacy sig_pubkey; sigs: 1 (1-of-1) valid
Outputs
- 1CRkjhJgWC6tPNdfqnXRgYDPniSScHenuP 5000 p2pkh U
- 13MpzqNfAK5TiNZubHUJjYU4DCJufgKoEe 10000 p2pkh U
Size: 225
Vsize: 225
Fee: None
Confirmations: None
------------end-----------
authentication progress
Basic Auth
Authentication Basic key dGVzdDp0ZXN0 username test password test
Authentication Basic key dGVzdDp0ZXN0 username test password test
Authentication Basic key dGVzdDp0ZXN0 username test user_id 1
user exist from user1
token  key 0c0a9bfcf970ef56844086fd59c4d2c37df6a8d0
Basic Auth Authentication Success
enter send
 txn with data{'hex': '0100000001cc7be8ed9952d5a633735c4ae702890ffd8fe5d70ffa29cb9cb9037a294d7e3f000000006a473044022070d0f37de5ef9ef4c5be7dbd4f1b49d42a821304af7a2195d0fa5c7754fabb04022028e11ccea40d0ee16b7394376efa5128dd2d04d3e7ca01949e6e215c4671f627012102e9acfec68c7721c30b90288c42c130af0f2a204b1226ee44f3384ef786f3a879ffffffff0288130000000000001976a9147d57e032ffc74e35094d4b78f22c765c75bddeb688ac10270000000000001976a91419e0a3051c3baa3a4bf8f7faa10e2d4e3be21ab688ac00000000', 'type': 'BTC', 'username': 'test', 'txn_type': 'buy', 'status': 'processing', 'source': 'btc:yuuiyiuyiyi897989', 'source_amount': '1', 'source_currency': 'btc', 'destination': 'btc:yuuiyiuyiyi897989', 'destination_amount': '1', 'destination_currency': 'btc', 'message': 'Wallet up', 'includes_fee': '9898'}
before send_dict_str =>{'id': 0, 'method': 'sendrawtransaction', 'params': ['0100000001cc7be8ed9952d5a633735c4ae702890ffd8fe5d70ffa29cb9cb9037a294d7e3f000000006a473044022070d0f37de5ef9ef4c5be7dbd4f1b49d42a821304af7a2195d0fa5c7754fabb04022028e11ccea40d0ee16b7394376efa5128dd2d04d3e7ca01949e6e215c4671f627012102e9acfec68c7721c30b90288c42c130af0f2a204b1226ee44f3384ef786f3a879ffffffff0288130000000000001976a9147d57e032ffc74e35094d4b78f22c765c75bddeb688ac10270000000000001976a91419e0a3051c3baa3a4bf8f7faa10e2d4e3be21ab688ac00000000']}
send_dict_str =>{"id": 0, "method": "sendrawtransaction", "params": ["0100000001cc7be8ed9952d5a633735c4ae702890ffd8fe5d70ffa29cb9cb9037a294d7e3f000000006a473044022070d0f37de5ef9ef4c5be7dbd4f1b49d42a821304af7a2195d0fa5c7754fabb04022028e11ccea40d0ee16b7394376efa5128dd2d04d3e7ca01949e6e215c4671f627012102e9acfec68c7721c30b90288c42c130af0f2a204b1226ee44f3384ef786f3a879ffffffff0288130000000000001976a9147d57e032ffc74e35094d4b78f22c765c75bddeb688ac10270000000000001976a91419e0a3051c3baa3a4bf8f7faa10e2d4e3be21ab688ac00000000"]}
 send_dict_str    {"id": 0, "method": "sendrawtransaction", "params": ["0100000001cc7be8ed9952d5a633735c4ae702890ffd8fe5d70ffa29cb9cb9037a294d7e3f000000006a473044022070d0f37de5ef9ef4c5be7dbd4f1b49d42a821304af7a2195d0fa5c7754fabb04022028e11ccea40d0ee16b7394376efa5128dd2d04d3e7ca01949e6e215c4671f627012102e9acfec68c7721c30b90288c42c130af0f2a204b1226ee44f3384ef786f3a879ffffffff0288130000000000001976a9147d57e032ffc74e35094d4b78f22c765c75bddeb688ac10270000000000001976a91419e0a3051c3baa3a4bf8f7faa10e2d4e3be21ab688ac00000000"]}
send ------- response --------------- {'txid': '8aaaf5285a078b43721785ff8c3776856065ac7f3803dba041175b41bd8da3ca', 'response_dict': '8aaaf5285a078b43721785ff8c3776856065ac7f3803dba041175b41bd8da3ca'}
200
send suucess response {"result":"8aaaf5285a078b43721785ff8c3776856065ac7f3803dba041175b41bd8da3ca","error":null,"id":0}
 with status code200
connect
message sent
saving in txn
saving in txn with data{'username': 'test', 'type': 'buy', 'status': 'processing', 'source': 'btc:yuuiyiuyiyi897989', 'source_amount': '1', 'source_currency': 'btc', 'destination': 'btc:yuuiyiuyiyi897989', 'destination_amount': '1', 'destination_currency': 'btc', 'message': 'Wallet up', 'includes_fee': '9898', 'txn_id': '{"result":"8aaaf5285a078b43721785ff8c3776856065ac7f3803dba041175b41bd8da3ca","error":null,"id":0}\n'}


service_url = get_env_var('service.url')+'/address/?wallet_id='+wallet_id+'&just_address=true&withsum='+str(withsum)
                print('service_url for get address',service_url )
                resp = requests.get(service_url,auth=service_auth)
                print('received for get address resp', resp.status_code, ' and response %s' %(resp.text) )


                source env/bin/activate



Access them with `erl -man`, or add this directory to MANPATH.
==> rabbitmq
Management Plugin enabled by default at http://localhost:15672

Bash completion has been installed to:
  /usr/local/etc/bash_completion.d

To have launchd start rabbitmq now and restart at login:
  brew services start rabbitmq
Or, if you don't want/need a background service you can just run:
  rabbitmq-server


  https://www.rabbitmq.com/install-homebrew.html

  pip freeze > requirements.txt

  install
  $ pip install -r requirements.txt

  http://localhost:15672/#/queues


  java -jar ~/Downloads/fakeSMTP-2.0.jar